:100000006F00C009000000000000000000000000B8
:1000100000000000000000000000000000000000E0
:1000200000000000000000000000000000000000D0
:1000300000000000000000000000000000000000C0
:1000400000000000000000000000000000000000B0
:1000500000000000000000000000000000000000A0
:100060000000000000000000000000000000000090
:100070000000000000000000000000000000000080
:100080000000000000000000000000000000000070
:1000900000000000000000000000000037110020F8
:1000A00013010180970200009382C2F593E23200AF
:1000B00073905230970200009382C2017390123401
:1000C0007300203013000000130000001300000034
:1000D000371502401305850183250500B75300003D
:1000E000938353A3B3E575002320B5003715024071
:1000F0001305C5018325050093E515002320B500F0
:100100003715014083250500B71300FF9383F3FFE4
:10011000B3F57500B7333300B3E575002320B500A0
:100120003715014013050501930380012320750055
:1001300037150000130525809305C000EF00C004AB
:1001400037150000130505839305C000EF00C003B9
:1001500037150000130525859305C000EF00C00288
:1001600037150000130565809305C000EF00C0013E
:10017000EF00C00B374501001305F507930510018B
:10018000EF0080006F000000130181FE23201100AA
:10019000232281002324510023266100232871009B
:1001A000232A410013040500B71201409382020183
:1001B0003703080023A062009385F5FFB353B40012
:1001C00093F3130063860300130300026F008000A3
:1001D0003703200023A062003703100023A0620031
:1001E0001302A0001302F2FFE31E02FE130300013C
:1001F00023A062001302A0001302F2FFE31E02FE1E
:10020000E39C05FA1303800023A06200032241014E
:10021000832301010323C1008322810003244100C1
:100220008320010013018101678000001301C1FEDA
:100230002320110023224100232431002326A10082
:100240002328B100130200003745010093118200FA
:100250003365350093051001EFF01FF31302120010
:1002600093010002E34232FE832501010325C10010
:1002700083218100032241008320010013014101F9
:1002800067800000130181FF2320110023226100F9
:1002900037B33201130353401303F3FFE31E03FE8E
:1002A00003234100832001001301810067800000C7
:1002B000130181FF232011002322610037B31E00A8
:1002C0001303A3B91303F3FFE31E03FE032341004B
:1002D000832001001301810067800000130181FF6A
:1002E00023201100232261001303A07D1303F3FFD9
:1002F000E31E03FE0323410083200100130181005C
:1003000067800000130181FF232011002322610078
:1003100037530000130343E81303F3FFE31E03FE08
:100320000323410083200100130181006780000046
:10033000130181FF23201100232261003793010064
:10034000130343891303F3FFE31E03FE032341005A
:10035000832001001301810067800000130181FFE9
:100360002320110023226100130390061303F3FFDF
:10037000E31E03FE032341008320010013018100DB
:10038000678000001301C1FF232011001303F3FF56
:10039000E31E03FE8320010013014100678000007B
:1003A000000000000000000000000000000000004D
:1003B000000000000000000000000000000000003D
:1003C000000000000000000000000000000000002D
:0C03D00000000000000000000000000021
:1003DC0068656C6C6F200068690030003100534117
:1003EC004A4545562053414E4B4152414E204348BD
:0C03FC003332563030332055415254004B
:040000030000009C5D
:00000001FF
